:020000040800F2
:10000000500B0020B9010008B13B00087136000810
:10001000AD3B0008C50600081D4C000800000000AC
:10002000000000000000000000000000F93D000892
:100030005907000800000000213C0008513E00085C
:10004000D3010008D3010008D3010008D301000840
:10005000D3010008D3010008D3010008D301000830
:10006000D3010008D3010008D3010008D301000820
:10007000C9060008D9060008E9060008F9060008C4
:10008000D3010008D3010008D3010008D301000800
:10009000D3010008D3010008D3010008D3010008F0
:1000A000D3010008D3010008D3010008D3010008E0
:1000B000C93E0008D3010008D3010008D30100089D
:1000C000D3010008D3010008D3010008D3010008C0
:1000D000D3010008FD4B0008D30100080D4C0008B7
:1000E000D3010008D3010008D301000800F002F892
:1000F00000F052F814A696E8000CB244B344DA4576
:1001000001D100F049F8BAE80F000FA696E83000D8
:10011000A5EB040504EB0607AAEB0704A7F101070A
:100120004FEA15154FEA3414A4F10104AC4201D38F
:1001300000F032F813F0010F18BFFB1A43F001036F
:1001400000F001F8DBE718475C7300007C730000E7
:10015000103A24BF78C878C1FAD8520724BF30C8F3
:1001600030C144BF04680C60704700007047000055
:100170000023002400250026103A28BF78C1FBD8B0
:10018000520728BF30C148BF0B6070471FB500F051
:10019000A3F81FBD10B510BD00F0E6F81146FFF73B
:1001A000F5FF06F083FD00F004F903B4FFF7F2FF5A
:1001B00003BC00F00DF900000948804709480047DA
:1001C000FEE7FEE7FEE7FEE7FEE7FEE7FEE7FEE707
:1001D000FEE7FEE704480549054A064B7047000064
:1001E000C53E0008ED00000850050020500B00201F
:1001F0005007002050070020032A40F2308010F002
:10020000030C00F0158011F8013BBCF1020F6244B1
:1002100098BF11F801CB00F8013B38BF11F8013B42
:10022000A2F1040298BF00F801CB38BF00F8013BEF
:1002300011F0030300F06680083AC0F0088051F81E
:10024000043B083A51F804CBA0E80810F5E7121D6A
:100250005CBF51F8043B40F8043BAFF30080D20789
:1002600024BF11F8013B11F801CB48BF11F8012B55
:1002700024BF00F8013B00F801CB48BF00F8012B78
:1002800070474FF0000200B5134694469646203959
:1002900022BFA0E80C50A0E80C50B1F12001BFF43F
:1002A000F7AF090728BFA0E80C5048BF0CC05DF8A5
:1002B00004EB890028BF40F8042B08BF704748BFF3
:1002C00020F8022B11F0804F18BF00F8012B704767
:1002D000704770477047000008487CB5784400902C
:1002E00007487844009C0546019004E020460168D8
:1002F00008448047241DAC42F8D17CBDE471000065
:10030000E271000010B5203AC0F00B80B1E818503F
:10031000A0E81850B1E81850A0E81850203ABFF4EF
:10032000F5AF5FEA027C24BFB1E81850A0E818508E
:1003300044BF18C918C0BDE810405FEA827C24BFE2
:1003400051F8043B40F8043B08BF7047D20728BF70
:1003500031F8023B48BF11F8012B28BF20F8023BBF
:1003600048BF00F8012B7047754600F02BF8AE46E9
:1003700005006946534620F00700854618B020B5B1
:10038000FFF728FFBDE820404FF000064FF00007C0
:100390004FF000084FF0000BAC46ACE8C009ACE8E9
:1003A000C009ACE8C009ACE8C00921F007018D46DE
:1003B000704710B50446AFF300802046BDE81040FA
:1003C000FFF7F3BE004870471000002070470000A0
:1003D00001491820ABBEFEE72600020080B586B0BA
:1003E00040F2AC40C2F2000004F090FF01208DF812
:1003F00017009DF817100020C907049041B1FFE7CE
:1004000040F21810C2F2000005F036FB0490FFE73E
:10041000049800F001008DF817009DF817100020D7
:10042000C907039041B1FFE740F2F010C2F20000AB
:1004300005F0B6F80390FFE7039800F001008DF88F
:1004400017009DF817100020C907029021B1FFE79F
:1004500004F0B0FC0290FFE7029800F001008DF874
:1004600017009DF817100020C907019041B1FFE760
:1004700040F2F410C2F2000006F0A6F90190FFE786
:10048000019800F001008DF8170040F2F410C2F25C
:1004900000000021C4F2202106F062FA40F27C1034
:1004A000C2F200000021C4F2C81105F0F5FE9DF86B
:1004B000170000F0010040F27001C2F20001087064
:1004C00000F0F8FD40F27401C2F2000108609DF8EE
:1004D000170000F0010006B080BD000080B5A6B096
:1004E00040F27000C2F200000078C00710BBFFE7C6
:1004F00000F0E0FD2590259840F21011C2F20001B5
:100500000968884201D2FFE7C1E0FFF767FF38B111
:10051000FFE740F21011C2F200010020086008E07D
:10052000259800F57A7040F21011C2F200010860BF
:10053000ADE0FFE700F0BEFD2490249840F2740186
:10054000C2F200010968401A092801D8FFE79EE0BD
:10055000249840F27401C2F2000108600020239048
:100560002290219020901F901E9021A81EA904F097
:1005700089FD48B9FFE700201D901C901B901A9040
:100580001AA804F06FFD82E000200490199040F258
:100590001810C2F2000019A905F0C0F9199940F22B
:1005A000F410C2F2000006F02FF90498189017908A
:1005B000249804F035FDF8B1FFE715A804F026FDF6
:1005C000159804F02FFCB0B1FFE7169804F02AFC50
:1005D00088B1FFE715984FF0414102914FF08242F8
:1005E000039204F0F5FC0299039A1890169804F00F
:1005F000EFFC1790FFE7FFE7179A18996B461EA8C4
:10060000186012A821AB04F0BBFB002011901090E1
:100610000F900E9012981399149A0EAB019304F058
:1006200099FB019804F01EFD40F21412C2F2000280
:100630001078411CC8B211700A2828D3FFE740F295
:100640001411C2F200010020087040F21810C2F22A
:10065000000000F124010D91016B0591416B0691A1
:10066000816B0791C16B0891016C0991406C0A90F4
:1006700040F2F410C2F2000001680B91806806F0AD
:10068000FBFC0C9005A8082104F04AFEFFE726B009
:1006900080BD000080B582B040F2D430C2F20000CC
:1006A00001F0EAFE20B1FFE700208DF8070005E029
:1006B000FFF794FE01208DF80700FFE79DF8070083
:1006C00002B080BDFFE7FEE780B540F2F020C2F245
:1006D000000000F023F980BD80B540F2AC20C2F2EA
:1006E000000000F01BF980BD80B540F26820C2F226
:1006F000000000F013F980BD80B540F22420C2F262
:10070000000000F00BF980BD84B0039002910192CB
:1007100000930398C16B026C0120904048600098E0
:1007200003990968486003984068102809D1FFE7D9
:100730000198039909688860029803990968C8605C
:1007400008E002980399096888600198039909688C
:10075000C860FFE704B070477047000080B582B002
:100760000190ADF802100198BDF8021005F052FF9B
:1007700002B080BD81B0EFF3108072B60090FFE749
:10078000FEE7000083B0019000208DF8030001987F
:1007900090F8210002280DD0FFE70199042088631A
:1007A000FFE70199002081F82000FFE701208DF884
:1007B0000B0021E001980168086820F00E00086035
:1007C00001980168086820F0010008600198C16B79
:1007D000026C012090404860FFE70199012081F8F8
:1007E0002100FFE70199002081F82000FFE79DF834
:1007F00003008DF80B00FFE79DF80B0003B0704776
:1008000080B588B0079000208DF81B00079890F8FD
:100810002100022807D0FFE7079904208863012000
:100820008DF81B0076E007980168086820F00E003C
:10083000086007980168086820F0010008600798C0
:1008400000680821C4F20201884203D1FFE70120B9
:10085000059047E0079800681C21C4F20201884215
:1008600003D1FFE71020049039E007980068302199
:10087000C4F20201884204D1FFE74FF48070039074
:100880002AE0079800684421C4F20201884204D19A
:10089000FFE74FF4805002901BE007980068582152
:1008A000C4F20201884204D1FFE74FF48030019086
:1008B0000CE0079801686C22C4F202024FF08070CD
:1008C000914208BF4FF480100190FFE70198029019
:1008D000FFE702980390FFE703980490FFE704986E
:1008E0000590FFE705980421C4F20201086007990A
:1008F000012081F82100FFE70799002081F82000FE
:10090000FFE70798406B20B1FFE70798416B8847E6
:10091000FFE7FFE79DF81B0008B080BD80B58EB0F3
:100920000D900D98C06B00680C900D9800680068E1
:100930000B900C980D99096CC8404007002875D59C
:10094000FFE79DF82C00400700286FD5FFE70D98C2
:10095000006800688006002807D4FFE70D9801684A
:10096000086820F004000860FFE70D98006808217F
:10097000C4F20201884203D1FFE704200A9047E055
:100980000D9800681C21C4F20201884203D1FFE7E0
:100990004020099039E00D9800683021C4F202012E
:1009A000884204D1FFE74FF4806008902AE00D9858
:1009B00000684421C4F20201884204D1FFE74FF4E9
:1009C000804007901BE00D9800685821C4F2020196
:1009D000884204D1FFE74FF4802006900CE00D9888
:1009E00001686C22C4F202024FF08060914208BF9D
:1009F0004FF480000690FFE706980790FFE70798FE
:100A00000890FFE708980990FFE709980A90FFE728
:100A10000A980421C4F2020108600D98C06A20B14E
:100A2000FFE70D98C16A8847FFE7B8E00C980D9979
:100A3000096CC8408007002840F18080FFE79DF8DE
:100A40002C008007002879D5FFE70D980068006822
:100A5000800600280BD4FFE70D980168086820F095
:100A60000A0008600D99012081F82100FFE70D9828
:100A700000680821C4F20201884203D1FFE7022086
:100A8000059047E00D9800681C21C4F202018842DD
:100A900003D1FFE72020049039E00D980068302151
:100AA000C4F20201884204D1FFE74FF400700390C2
:100AB0002AE00D9800684421C4F20201884204D162
:100AC000FFE74FF4005002901BE00D98006858219A
:100AD000C4F20201884204D1FFE74FF400300190D4
:100AE0000CE00D9801686C22C4F202024FF0007015
:100AF000914208BF4FF400100190FFE70198029067
:100B0000FFE702980390FFE703980490FFE704983B
:100B10000590FFE705980421C4F202010860FFE791
:100B20000D99002081F82000FFE70D98806A20B120
:100B3000FFE70D98816A8847FFE72FE00C980D9931
:100B4000096CC8400007002827D5FFE79DF82C0056
:100B50000007002821D5FFE70D980168086820F0FC
:100B60000E0008600D98C26B016C012000FA01F1C3
:100B700051600D9988630D9981F82100FFE70D9967
:100B8000002081F82000FFE70D98006B20B1FFE7FF
:100B90000D98016B8847FFE7FFE7FFE7FFE70EB01F
:100BA00080BD000083B0019000200090019820B922
:100BB000FFE701208DF80B0047E0019908684FF628
:100BC000F872CBF6FD7210444CF6CD42CCF6CC4216
:100BD000A0FB02026FF0030000EA92000864019992
:100BE0000020C4F20200C8630199022081F82100AC
:100BF0000198006800680090009843F6F0718843FF
:100C0000009001994868D1F808C0CB680A6940EAA9
:100C10000C00184310434A6910438A691043C9699C
:100C20000143009808430090009801990968086002
:100C3000019900208863019A012182F8211001990D
:100C400081F820008DF80B00FFE79DF80B0003B042
:100C50007047000080B586B0049003910292019322
:100C600000208DF80300FFE7049890F82000012889
:100C700004D1FFE702208DF817004CE00499012011
:100C800081F82000FFE7FFE7049890F82100012891
:100C900032D1FFE70499022081F821000499002055
:100CA000886304980168086820F0010008600498CF
:100CB0000399029A019BFFF727FD0498C06A38B197
:100CC000FFE704980168086840F00E0008600CE037
:100CD00004980168086820F004000860049801681E
:100CE000086840F00A000860FFE704980168086897
:100CF00040F00100086009E0FFE70499002081F856
:100D00002000FFE702208DF80300FFE79DF80300B5
:100D10008DF81700FFE79DF8170006B080BD0000B2
:100D200080B584B0039000F0C5F90290039801905B
:100D30000198013048B1FFE740F20400C2F2000020
:100D40000178019808440190FFE7FFE700F0B2F94D
:100D50000299401A0199884201D2FFE7F6E704B0F0
:100D600080BD000090B00F900E9100200D90099072
:100D7000FFE70E9800680D99C840002800F07F81B9
:100D8000FFE70D99012088400C900E9800680C999F
:100D900008400B900B980C99884240F06C81FFE75B
:100DA0000E9840680590002851D0FFE7059801286B
:100DB0003AD0FFE7059802283FD0FFE705980328BF
:100DC0005FD0FFE70598112832D0FFE70598122879
:100DD00038D0FFE705980021C1F21101884236D0D2
:100DE000FFE705980021C1F2120188422FD0FFE7EA
:100DF00005980021C1F22101884228D0FFE705981B
:100E00000021C1F22201884221D0FFE7059800218C
:100E1000C1F2310188421AD0FFE705980021C1F2E2
:100E20003201884213D02FE00E98C06809902CE060
:100E30000E98C0680430099027E00E98C06808300A
:100E4000099022E00E98C0680C3009901DE00E98C1
:100E5000806818B9FFE70420099011E00E988068B7
:100E6000012806D1FFE7082009900C980F99086126
:100E700005E0082009900C980F994861FFE7FFE70B
:100E800003E00020099000E0FFE70B98FF2803D85B
:100E9000FFE70F98049003E00F9804300490FFE7F9
:100EA000049808900B98FF2804D8FFE70D9880005D
:100EB000039006E00D996FF01F0000EB8100039096
:100EC000FFE70398079008980068079A0F21914060
:100ED0008843099991400843089908600E98C079A1
:100EE000C006002840F1C680FFE7FFE741F2180086
:100EF000C4F20200016841F001010160006800F0E5
:100F0000010006900698FFE70D9820F003000821E5
:100F1000C4F2010140580A900D9800F003008100CE
:100F20000F2000FA01F10A9888430A900F9840F6C2
:100F30000001C4F20101884203D1FFE700200290C2
:100F400026E00F9840F60041C4F20101884203D127
:100F5000FFE70120019018E00F9841F20001C4F270
:100F60000101884203D1FFE7022000900AE00F99B7
:100F700041F20042C4F201020420914208BF032062
:100F80000090FFE700980190FFE701980290FFE7CB
:100F900002980D9901F00301890000FA01F10A9805
:100FA00008430A900A980D9921F003010822C4F21F
:100FB000010288500E988079C006002809D5FFE705
:100FC0000B9A40F20841C4F201010868104308601E
:100FD00008E00B9A40F20841C4F20101086890430E
:100FE0000860FFE70E9880798006002809D5FFE7A2
:100FF0000B9A40F20C41C4F20101086810430860EA
:1010000008E00B9A40F20C41C4F2010108689043D9
:101010000860FFE70E9880798007002809D5FFE770
:101020000B9A40F20441C4F20101086810430860C1
:1010300008E00B9A40F20441C4F2010108689043B1
:101040000860FFE70E988079C00748B1FFE70B9A68
:1010500040F20041C4F2010108681043086008E052
:101060000B9A40F20041C4F2010108689043086005
:10107000FFE7FFE7FFE70D9801300D9079E610B02C
:101080007047000082B00190ADF802108DF8012089
:101090009DF8010028B1FFE7BDF802000199086141
:1010A00005E0BDF80200000401990861FFE702B005
:1010B0007047000040F24850C2F2000000687047DC
:1010C00040F20400C2F20000027840F24851C2F23D
:1010D00000010868104408607047000080B542F2C3
:1010E0000001C4F20201086840F01000086003200B
:1010F00000F096F80F2000F005F800F03BF8002013
:1011000080BD000080B582B0009040F20000C2F2C5
:101110000000006840F20401C2F200010A784FF4B6
:101120007A71B1FBF2F1B0FBF1F001F00DF820B1F2
:10113000FFE701208DF8070018E000980F280DD870
:10114000FFE700994FF0FF30002200F04FF80098C1
:1011500040F20801C2F20001086003E001208DF8AE
:10116000070003E000208DF80700FFE79DF8070067
:1011700002B080BD83B0FFE741F21800C4F2020064
:10118000016841F001010160006800F00100029077
:101190000298FFE7FFE741F21C00C4F20200016879
:1011A00041F080510160006800F08050019001988A
:1011B000FFE7FFE70421C4F20101086800900098EE
:1011C00020F0E0600090009840F0007000900098DF
:1011D0000860FFE703B0704780B582B08DF8070064
:1011E0009DF9070005F0BEFC02B080BD80B586B059
:1011F0008DF81700049103920020029005F0CAFCBC
:1012000002909DF91700019002980499039A02F048
:10121000D1FC0146019805F0C5FC06B080BD000078
:1012200080B582B00190019805F0DEFC02B080BD6F
:1012300080B584B002900191029820B9FFE70120A7
:101240008DF80F001BE1019842F20001C4F2020187
:10125000096801F00701884216D9FFE742F2000051
:10126000C4F20200016821F00701019A11430160F4
:10127000006800F007000199884204D0FFE70120D0
:101280008DF80F00FBE0FFE7029800788007002848
:101290002AD5FFE7029800784007002809D5FFE724
:1012A00041F20401C4F20201086840F4E060086001
:1012B000FFE7029800780007002809D5FFE741F210
:1012C0000401C4F20201086840F460500860FFE7BE
:1012D00041F20401C4F20201086820F0F000029A11
:1012E000926810430860FFE702980078C007002862
:1012F00060D0FFE70298406801280ED1FFE741F275
:101300000000C4F2020000688003002804D4FFE754
:1013100001208DF80F00B2E021E002984068022819
:101320000ED1FFE741F20000C4F202000068800124
:10133000002804D4FFE701208DF80F009FE00DE0A6
:1013400041F20000C4F2020000688007002804D4C3
:10135000FFE701208DF80F0091E0FFE7FFE741F282
:101360000401C4F20201086820F00300029A5268E6
:1013700010430860FFF79EFE0090FFE741F2040073
:10138000C4F20200006800F00C0002994968B0EB5A
:10139000810F0ED0FFE7FFF78DFE0099401A41F252
:1013A0008931884204D3FFE703208DF80F0066E0FF
:1013B000E4E7FFE7019842F20001C4F20201096884
:1013C00001F00701884216D2FFE742F20000C4F2A2
:1013D0000200016821F00701019A114301600068D1
:1013E00000F007000199884204D0FFE701208DF842
:1013F0000F0044E0FFE702980078400700280CD572
:10140000FFE741F20401C4F20201086820F4E06041
:10141000029AD26810430860FFE70298007800073C
:1014200000280DD5FFE741F20401C4F2020108686B
:1014300020F46050029A126940EAC2000860FFE797
:1014400000F04CF841F20401C4F202010968C9B28B
:101450000A0947F2F231C0F60001895CC84040F247
:101460000001C2F20001086040F20800C2F2000070
:101470000068FFF747FE00208DF80F00FFE79DF89A
:101480000F0004B080BD000040F20000C2F2000076
:101490000068704780B5FFF7F7FF41F20401C4F21E
:1014A00002010968C1F3022247F20241C0F60001BD
:1014B000895CC84080BD000080B5FFF7E5FF41F2C0
:1014C0000401C4F202010968C1F3C22247F20241D9
:1014D000C0F60001895CC84080BD000086B00020D5
:1014E0000590049003900290019041F20400C4F230
:1014F000020000680590059800F00C00014600917C
:1015000000283FD0FFE70098042804D0FFE70098A8
:10151000082806D037E041F20020C0F27A0001909E
:1015200037E00598C0F3834147F20A40C0F6000057
:10153000405C02909DF81600C007C0B1FFE741F281
:101540000400C4F202000068C0F3404147F21A40B0
:10155000C0F60000405C0490029841F20021C0F205
:101560007A0148430499B0FBF1F0039007E0029838
:1015700040F60011C0F23D0148430390FFE7039895
:10158000019006E0FFE741F20020C0F27A000190EE
:10159000FFE7019806B0704780B586B004900498C4
:1015A00020B9FFE701208DF817002EE3049800789A
:1015B000C007002800F0AE80FFE741F20400C4F24B
:1015C0000200006800F00C00042813D0FFE741F28D
:1015D0000400C4F20200006800F00C0008281BD1CF
:1015E000FFE741F20400C4F202000068C0030028D3
:1015F00012D5FFE741F20000C4F202000068800348
:10160000002808D5FFE70498406820B9FFE70120CB
:101610008DF81700F9E27CE0FFE704984068B0F528
:10162000803F09D1FFE741F20001C4F202010868DE
:1016300040F48030086032E00498406868B9FFE701
:1016400041F20001C4F20201086820F48030086011
:10165000086820F48020086020E004984068B0F515
:10166000A02F0DD1FFE741F20001C4F2020108688A
:1016700040F480200860086840F4803008600CE086
:1016800041F20001C4F20201086820F480300860D1
:10169000086820F480200860FFE7FFE7FFE7FFE726
:1016A00004984068D0B1FFE7FFF704FD0390FFE71F
:1016B00041F20000C4F202000068800300280CD44C
:1016C000FFE7FFF7F7FC0399401A652804D3FFE70B
:1016D00003208DF8170098E2EAE719E0FFF7EAFC2B
:1016E0000390FFE741F20000C4F2020000688003AB
:1016F00000280CD5FFE7FFF7DDFC0399401A6528A9
:1017000004D3FFE703208DF817007EE2EAE7FFE746
:10171000FFE7FFE7049800788007002840F18D80FC
:10172000FFE741F20400C4F20200006810F00C0F61
:1017300013D0FFE741F20400C4F20200006800F099
:101740000C00082829D1FFE741F20400C4F202008E
:101750000068C003002820D4FFE741F20000C4F273
:10176000020000688007002809D5FFE70498006997
:10177000012804D0FFE701208DF8170045E241F26F
:101780000001C4F20201086820F0F800049A5269CE
:1017900040EAC2000860FFE74EE00498006958B3D1
:1017A000FFE70021C4F2422101200860FFF782FC1C
:1017B0000390FFE741F20000C4F2020000688007D6
:1017C00000280CD4FFE7FFF775FC0399401A0328A3
:1017D00004D3FFE703208DF8170016E2EAE741F291
:1017E0000001C4F20201086820F0F800049A52696E
:1017F00040EAC20008601EE00021C4F2422100203D
:101800000860FFF757FC0390FFE741F20000C4F2C5
:1018100002000068800700280CD5FFE7FFF74AFCAC
:101820000399401A032804D3FFE703208DF817001B
:10183000EBE1EAE7FFE7FFE7FFE70498007800073E
:10184000002848D5FFE70498806918B3FFE740F205
:101850008041C4F2422101200860FFF72BFC039075
:10186000FFE741F22400C4F202000068800700286C
:101870000CD4FFE7FFF71EFC0399401A032804D39A
:10188000FFE703208DF81700BFE1EAE7012002F02F
:10189000C9F91FE040F28041C4F2422100200860F3
:1018A000FFF708FC0390FFE741F22400C4F20200B6
:1018B0000068800700280CD5FFE7FFF7FBFB0399C2
:1018C000401A032804D3FFE703208DF817009CE19A
:1018D000EAE7FFE7FFE7049800784007002840F1B7
:1018E000D880FFE700208DF8070041F21C00C4F209
:1018F00002000068C000002813D4FFE7FFE741F2B0
:101900001C00C4F20200016841F0805101600068CF
:1019100000F0805000900098FFE701208DF807004C
:10192000FFE747F20000C4F200000068C00500288D
:1019300022D4FFE747F20001C4F20001086840F436
:1019400080700860FFF7B6FB0390FFE747F20000E6
:10195000C4F200000068C00500280CD4FFE7FFF7C0
:10196000A9FB0399401A652804D3FFE703208DF8EB
:1019700017004AE1EAE7FFE7FFE70498C06801289B
:1019800009D1FFE741F22001C4F20201086840F0EA
:101990000100086031E00498C06868B9FFE741F2CF
:1019A0002001C4F20201086820F001000860086804
:1019B00020F0040008601FE00498C06805280DD1DD
:1019C000FFE741F22001C4F20201086840F0040080
:1019D0000860086840F0010008600CE041F2200156
:1019E000C4F20201086820F001000860086820F0D5
:1019F00004000860FFE7FFE7FFE7FFE70498C0681F
:101A0000E0B1FFE7FFF756FB0390FFE741F220004C
:101A1000C4F202000068800700280ED4FFE7FFF739
:101A200049FB0399401A41F28931884204D3FFE708
:101A300003208DF81700E8E0E8E71BE0FFF73AFB2A
:101A40000390FFE741F22000C4F202000068800723
:101A500000280ED5FFE7FFF72DFB0399401A41F24E
:101A60008931884204D3FFE703208DF81700CCE0CA
:101A7000E8E7FFE79DF80700012809D1FFE741F2F9
:101A80001C01C4F20201086820F080500860FFE7E2
:101A9000FFE70498C069002800F0B380FFE741F237
:101AA0000400C4F20200006800F00C00082800F0F6
:101AB0008280FFE70498C06902285CD1FFE76021BB
:101AC000C4F2422100200860FFF7F4FA0390FFE718
:101AD00041F20000C4F202000068800100280CD529
:101AE000FFE7FFF7E7FA0399401A032804D3FFE75B
:101AF00003208DF8170088E0EAE70498006AB0F543
:101B0000803F0CD1FFE741F20401C4F202010868F2
:101B100020F40030049A926810430860FFE741F215
:101B20000401C4F20201086820F47410049B1A6ACC
:101B30005B6A1A43104308606021C4F2422101200D
:101B40000860FFF7B7FA0390FFE741F20000C4F224
:101B500002000068800100280CD4FFE7FFF7AAFA12
:101B60000399401A032804D3FFE703208DF81700D8
:101B70004BE0EAE71EE06021C4F242210020086049
:101B8000FFF798FA0390FFE741F20000C4F2020069
:101B90000068800100280CD5FFE7FFF78BFA039956
:101BA000401A032804D3FFE703208DF817002CE028
:101BB000EAE7FFE724E00498C069012804D1FFE7C1
:101BC00001208DF8170020E041F20400C4F2020069
:101BD00000680290029800F480300499096A8842F3
:101BE00008D1FFE7029800F470100499496A88420E
:101BF00004D0FFE701208DF8170006E0FFE7FFE7BC
:101C0000FFE700208DF81700FFE79DF8170006B0EA
:101C100080BD000080B584B00290029820B9FFE733
:101C200001208DF80F006EE00298406A60B9FFE76E
:101C300002984068B0F5827F01D1FFE703E0029986
:101C40000020C861FFE705E00299002008610299C1
:101C50004861FFE7029900208862029890F85100DD
:101C600040B9FFE70299002081F85000029800F087
:101C70004FF8FFE70299022081F8510002980168AD
:101C8000086820F040000860029A019211685068CC
:101C9000D2F808C0D36800F482700CF4044C60449D
:101CA00003F400631844136903F0020318445369F2
:101CB00003F001031844936903F400731844D369D3
:101CC00003F038031844136A03F080031843926A40
:101CD00002F40052104308600298016882690420EF
:101CE00000EA1240486002980168C86920F4006068
:101CF000C861029900204865029A012182F85110BA
:101D00008DF80F00FFE79DF80F0004B080BD0000C4
:101D100080B58AB009900020089007900690059041
:101D20000998006843F20001C4F20101884237D1EA
:101D3000FFE7FFE741F21800C4F20200016841F436
:101D400080510160006800F4805004900498FFE71F
:101D5000FFE741F21800C4F20200016841F00401FB
:101D60000160006800F0040003900398FFE7A020E2
:101D70000590022006900320089040F60000C4F26F
:101D80000100019005A90291FEF7ECFF019802996C
:101D900040220592002206920792FEF7E3FFFFE73A
:101DA0000AB080BD80B58CB0DDF838C00A900991CA
:101DB0000892ADF81E3001200390FFF77BF90490E4
:101DC0000A9890F851008DF817000A98406806901C
:101DD000BDF81E00ADF81C009DF81700012812D0B8
:101DE000FFE70698B0F5827F09D1FFE70A9880687F
:101DF00028B9FFE79DF81700042804D0FFE7022068
:101E00008DF82F009BE1099838B1FFE7089820B1C1
:101E1000FFE7BDF81E0020B9FFE701208DF82F0075
:101E20008DE1FFE70A9890F85000012804D1FFE700
:101E300002208DF82F0082E10A99012081F85000DC
:101E4000FFE7FFE70A9890F85100042805D0FFE764
:101E50000A99052081F85100FFE70A99002048659A
:101E600008990A9A9163BDF81E100A9AD187BDF8A5
:101E70001E100A9A918709990A9A1163BDF81E10DB
:101E80000A9AD186BDF81E100A9A91860A990864AA
:101E90000A9948640A980068006800F040004028E9
:101EA00007D0FFE70A980168086840F04000086022
:101EB000FFE70A98C068B0F5006F40F08180FFE747
:101EC0000A98406828B1FFE7BDF81C0001280ED130
:101ED000FFE70A980168006B0088C8600A99086BE0
:101EE000023008630A99C88E0138C886FFE7FFE709
:101EF0000A98C18E0120019039B9FFE70A98C08F76
:101F0000002818BF01200190FFE70198C0070028B2
:101F100055D0FFE70A98006880688007002818D528
:101F2000FFE70A98C08EA0B1FFE70398012810D1FF
:101F3000FFE70A980168006B0088C8600A99086B7F
:101F4000023008630A99C88E0138C88600200390C1
:101F5000FFE70A9800688068C007A8B1FFE70A9801
:101F6000C08F88B1FFE70A980068C0680A99896B3A
:101F700008800A99886B023088630A99C88F0138F3
:101F8000C88701200390FFE7FFF794F80499401AEF
:101F90000E99884212D3FFE70E98013070B1FFE727
:101FA0000A99012081F85100FFE70A99002081F881
:101FB0005000FFE703208DF82F00C0E098E782E093
:101FC0000A98406828B1FFE7BDF81C0001280ED12F
:101FD000FFE70A980168006B007808730A99086B9C
:101FE000013008630A99C88E0138C886FFE7FFE709
:101FF0000A98C18E0120009039B9FFE70A98C08F76
:10200000002818BF01200090FFE70098C0070028B3
:1020100058D0FFE70A98006880688007002818D524
:10202000FFE70A98C08EA0B1FFE70398012810D1FE
:10203000FFE70A980168006B007808730A99086B3B
:10204000013008630A99C88E0138C88600200390C1
:10205000FFE70A9800688068C007A8B1FFE70A9800
:10206000C08F88B1FFE70A980068C0680A99896B39
:1020700008700A99886B013088630A99C88F013803
:10208000C88701200390FFE7FFF714F80499401A6E
:102090000E99884204D3FFE70E98013018B9FFE784
:1020A0000E9870B9FFE70A99012081F85100FFE707
:1020B0000A99002081F85000FFE703208DF82F00D7
:1020C0003DE095E7FFE70A980E99049A01F0C8FDF4
:1020D00068B1FFE70A9920204865FFE70A990020C8
:1020E00081F85000FFE701208DF82F0027E00A98C3
:1020F000806870B9FFE7FFE7002002900A98006847
:10210000C06802900A980068806802900298FFE711
:10211000FFE70A99012081F85100FFE70A990020A2
:1021200081F85000FFE70A98406D20B1FFE70120D9
:102130008DF82F0003E000208DF82F00FFE79DF8B9
:102140002F000CB080BD000080B582B001900198D6
:1021500001F054FE02B080BD81B0009001B0704724
:1021600081B0009001B0704784B0029001910020CE
:102170000090FFE7029890F83C00012804D1FFE7A7
:1021800002208DF80F0044E00299012081F83C0004
:10219000FFE7FFE7009820F0FF000199C9680843B6
:1021A0000090009820F440700199896808430090DD
:1021B000009820F4806001994968084300900098D5
:1021C00020F400600199096808430090009820F409
:1021D00080500199096908430090009820F400504C
:1021E0000199496908430090009820F480400199C2
:1021F000C969084300900098029909684864FFE79C
:102200000299002081F83C00FFE700208DF80F00C4
:10221000FFE79DF80F0004B07047000085B0039001
:102220000291FFE7039890F83C00012804D1FFE7F2
:1022300002208DF813005BE00399012081F83C0037
:10224000FFE7FFE70399022081F83D00039800684B
:10225000406801900398006880680090019820F021
:10226000700001900298016801980843019001985C
:102270000399096848600398006842F60041C4F277
:102280000101884218D0FFE703980068B0F1804F41
:1022900012D0FFE70398006840F20041C4F2000149
:1022A000884209D0FFE70398006840F60001C4F2B5
:1022B000000188420ED1FFE7009820F080000090D6
:1022C00002984168009808430090009803990968B3
:1022D0008860FFE70399012081F83D00FFE703993B
:1022E000002081F83C00FFE700208DF81300FFE795
:1022F0009DF8130005B0704780B582B0009000983B
:1023000020B9FFE701208DF807003FE0009890F822
:102310003D0040B9FFE70099002081F83C0000989B
:1023200000F038F8FFE70099022081F83D0000999D
:1023300051F8040B01F0D0FD0099012081F846000E
:10234000FFE70099012081F83E00009981F83F00E5
:10235000009981F84000009981F84100FFE7FFE70C
:102360000099012081F84200009981F8430000990A
:1023700081F84400009981F84500FFE700990120A9
:1023800081F83D0000208DF80700FFE79DF8070069
:1023900002B080BD80B586B005900598006842F611
:1023A0000041C4F20101884210D1FFE7FFE741F28A
:1023B0001800C4F20200016841F400610160006885
:1023C00000F4006004900498FFE753E0059800686B
:1023D000B0F1804F19D1FFE7FFE741F21C00C4F2D2
:1023E0000200016841F001010160006800F0010095
:1023F00003900398FFE71C20009000221146FEF78F
:10240000F5FE0098FEF7E8FE33E00598006840F21C
:102410000041C4F20001884210D1FFE7FFE741F21A
:102420001C00C4F20200016841F002010160006872
:1024300000F0020002900298FFE719E0059800689A
:1024400040F60001C4F20001884210D1FFE7FFE727
:1024500041F21C00C4F20200016841F00401016075
:10246000006800F0040001900198FFE7FFE7FFE734
:10247000FFE7FFE706B080BD83B00190019890F8B8
:102480003D00012804D0FFE701208DF80B0047E054
:102490000199022081F83D0001980168C86840F068
:1024A0000100C8600198006842F60041C4F20101D1
:1024B000884218D0FFE701980068B0F1804F12D031
:1024C000FFE70198006840F20041C4F20001884231
:1024D00009D0FFE70198006840F60001C4F200014E
:1024E000884212D1FFE701980068806800F0070079
:1024F00000900098062807D0FFE701980168086857
:1025000040F001000860FFE706E0019801680868F4
:1025100040F001000860FFE700208DF80B00FFE7A6
:102520009DF80B0003B0704780B586B0049003910E
:1025300000208DF80B00FFE7049890F83C0001287C
:1025400004D1FFE702208DF81700ABE004990120C9
:1025500081F83C00FFE7FFE70499022081F83D0085
:102560000498006880680190019820F0770001903D
:10257000019820F47F4001900198049909688860CF
:10258000039800680090002872D0FFE70098102898
:102590006ED0FFE7009820286AD0FFE70098302827
:1025A00066D0FFE70098402855D0FFE700985028F4
:1025B00037D0FFE70098602840D0FFE700987028E8
:1025C0000BD0FFE70098B0F5805F05D0FFE70098DB
:1025D000B0F5005F16D052E055E004980068039B08
:1025E0005A689968DB6801F017FD049800688068F4
:1025F0000190019840F077000190019804990968D2
:10260000886040E004980068039B5A689968DB681A
:1026100001F002FD04980168886840F480408860F9
:1026200031E004980068039A5168D26801F0B0FE66
:1026300004980068502101F009FD24E00498006826
:10264000039A5168D26801F0CBFE049800686021BB
:1026500001F0FCFC17E004980068039A5168D26806
:1026600001F096FE04980068402101F0EFFC0AE0BA
:10267000049800680399096801F0E8FC03E0012070
:102680008DF80B00FFE70499012081F83D00FFE77A
:102690000499002081F83C00FFE79DF80B008DF8BD
:1026A0001700FFE79DF8170006B080BD81B00090CD
:1026B00001B0704780B584B0039003980068C0688B
:1026C000029003980068006901909DF8040080075B
:1026D000002824D5FFE79DF80800800700281DD5B5
:1026E000FFE7039801686FF0020008610399012079
:1026F0000877039800688069800720B1FFE7039896
:10270000FFF7D4FF06E0039800F038F9039800F0D3
:102710002DFAFFE7039900200877FFE7FFE79DF810
:1027200004004007002825D5FFE79DF80800400772
:1027300000281ED5FFE7039801686FF004000861C8
:1027400003990220087703980068806910F4407F9D
:1027500004D0FFE70398FFF7A9FF06E0039800F015
:102760000DF9039800F002FAFFE7039900200877BB
:10277000FFE7FFE79DF804000007002824D5FFE7E6
:102780009DF80800000700281DD5FFE703980168A1
:102790006FF0080008610399042008770398006827
:1027A000C069800720B1FFE70398FFF77FFF06E0CD
:1027B000039800F0E3F8039800F0D8F9FFE70399D5
:1027C00000200877FFE7FFE79DF80400C006002817
:1027D00025D5FFE79DF80800C00600281ED5FFE7B5
:1027E000039801686FF010000861039908200877CA
:1027F00003980068C06910F4407F04D0FFE7039895
:10280000FFF754FF06E0039800F0B8F8039800F0D3
:10281000ADF9FFE7039900200877FFE7FFE79DF890
:102820000400C00778B1FFE79DF80800C00748B171
:10283000FFE7039801686FF001000861039800F05A
:1028400049FAFFE7FFE79DF804000006002810D5CD
:10285000FFE79DF808000006002809D5FFE7039868
:1028600001686FF0800008610398FFF775FCFFE7CF
:10287000FFE79DF804004006002810D5FFE79DF80B
:1028800008004006002809D5FFE7039801686FF0AB
:1028900040000861039800F051FAFFE7FFE79DF858
:1028A00004008006002810D5FFE79DF80800800688
:1028B000002809D5FFE7039801686FF02000086140
:1028C0000398FFF74DFCFFE7FFE704B080BD000071
:1028D00080B588B007900020069005900490039082
:1028E0000798006842F60041C4F2010188421DD1F8
:1028F000FFE7FFE741F21800C4F20200016841F06F
:1029000004010160006800F0040002900298FFE7F3
:102910004FF47060039002200490069040F600008F
:10292000C4F2010003A9FEF71DFA25E0079800682C
:1029300040F20041C4F2000188421CD1FFE7FFE7EA
:1029400041F21800C4F20200016841F00801016080
:10295000006800F0080001900198FFE70120039053
:1029600002200490069040F60040C4F2010003A942
:10297000FEF7F8F9FFE7FFE708B080BD81B00090EF
:1029800001B0704780B586B0049003910292002098
:102990008DF80700FFE7049890F83C00012804D167
:1029A000FFE702208DF8170089E00499012081F8E3
:1029B0003C00FFE7FFE7029800900C2800F27080CF
:1029C0000099DFE801F0076D6D6D206D6D6D3A6D5A
:1029D0006D6D530004980068039901F04DFB049855
:1029E0000168886940F00800886104980168886976
:1029F00020F00400886103980269049801688869DE
:102A00001043886150E004980068039901F09CFB32
:102A100004980168886940F400608861049801683E
:102A2000886920F4806088610398026904980168CD
:102A3000886940EA0220886136E0049800680399BA
:102A400001F0EEFB04980168C86940F00800C86115
:102A500004980168C86920F00400C86103980269FD
:102A600004980168C8691043C8611DE004980068B3
:102A7000039901F041FC04980168C86940F40060C2
:102A8000C86104980168C86920F48060C86103982F
:102A9000026904980168C86940EA0220C86103E03D
:102AA00001208DF80700FFE7FFE70499002081F877
:102AB0003C00FFE79DF807008DF81700FFE79DF841
:102AC000170006B080BD000080B582B0009000986D
:102AD00020B9FFE701208DF807003FE0009890F84B
:102AE0003D0040B9FFE70099002081F83C000098C4
:102AF00000F038F8FFE70099022081F83D000099C6
:102B000051F8040B01F0E8F90099012081F8460022
:102B1000FFE70099012081F83E00009981F83F000D
:102B2000009981F84000009981F84100FFE7FFE734
:102B30000099012081F84200009981F84300009932
:102B400081F84400009981F84500FFE700990120D1
:102B500081F83D0000208DF80700FFE79DF8070091
:102B600002B080BD81B0009001B0704781B000908C
:102B700001B0704780B58AB008900791079828B9CE
:102B8000FFE7089890F83E0005901CE0079804289D
:102B900005D1FFE7089890F83F00049010E00798EF
:102BA000082805D1FFE7089890F84000039004E05A
:102BB000089890F841000390FFE703980490FFE71E
:102BC00004980590FFE70598012804D0FFE701204D
:102BD0008DF827007AE0079828B9FFE708990220C6
:102BE00081F83E001EE00798042806D1FFE7089907
:102BF000022081F83F00029012E00798082806D1D1
:102C0000FFE70899022081F84000019005E008994B
:102C1000022081F841000190FFE701980290FFE750
:102C20000298FFE7089800680799012201F0D8F997
:102C30000898006842F60041C4F20101884207D1B9
:102C4000FFE708980168486C40F400404864FFE7DB
:102C50000898006842F60041C4F20101884218D089
:102C6000FFE708980068B0F1804F12D0FFE708989E
:102C7000006840F20041C4F20001884209D0FFE739
:102C80000898006840F60001C4F20001884212D1A1
:102C9000FFE708980068806800F007000690069833
:102CA000062807D0FFE708980168086840F001008F
:102CB0000860FFE706E008980168086840F0010036
:102CC0000860FFE700208DF82700FFE79DF8270048
:102CD0000AB080BD81B00090009830B1FFE7009845
:102CE0000068B0F1804F01D0FFE724E040F23C5192
:102CF000C2F2000108680A30086040F24051C2F296
:102D000000010120087040F27100C2F20000017859
:102D100001310170007802280DDBFFE740F27101FC
:102D2000C2F200010020087040F24151C2F20001DD
:102D300001200870FFE701B07047000081B00090EB
:102D400001B0704780B586B004900391ADF80A20B9
:102D5000049890F84200202848D1FFE7039820B15A
:102D6000FFE7BDF80A0020B9FFE701208DF8170042
:102D700040E0049901200863049900204863049806
:102D80000399BDF80A2001F069FE8DF80900049846
:102D9000006B012821D1FFE7FFE700200190049894
:102DA00000680068019004980068406801900198EC
:102DB000FFE7FFE7FFE70498006850E8030F40F0E3
:102DC00010000090FFE700990498026842E80310A1
:102DD0000028F0D1FFE7FFE703E001208DF80900AC
:102DE000FFE79DF809008DF8170003E002208DF839
:102DF0001700FFE79DF8170006B080BD80B582B0D0
:102E00000190ADF802100198BDF80210FDF7A6FC84
:102E100002B080BD81B0009001B0704780B592B023
:102E20001190119800680068109011980068C068AF
:102E30000F901198006840690E9000200D900C9042
:102E4000109800F00F000D900D9888B9FFE79DF8DD
:102E50004000800600280AD5FFE79DF83C00800668
:102E6000002804D5FFE7119801F0E4FCE9E1FFE751
:102E70000D98002800F0C280FFE79DF83800C007D9
:102E800038B9FFE7BDF83C0010F4907F00F0B68041
:102E9000FFE79DF84000C00758B1FFE79DF83D00EF
:102EA000C00730B1FFE71199486C40F00100486459
:102EB000FFE79DF84000400700280BD5FFE79DF88D
:102EC0003800C00730B1FFE71199486C40F00200AC
:102ED0004864FFE79DF84000800700280BD5FFE716
:102EE0009DF83800C00730B1FFE71199486C40F0F9
:102EF00004004864FFE79DF840000007002811D552
:102F0000FFE79DF83C008006002805D4FFE79DF808
:102F10003800C00730B1FFE71199486C40F0080055
:102F20004864FFE71198406C002866D0FFE79DF8E1
:102F30004000800600280AD5FFE79DF83C00800687
:102F4000002804D5FFE7119801F074FCFFE7119801
:102F500000684069C0F380100C901198406C000725
:102F6000002804D4FFE70C9800283ED0FFE7119812
:102F700001F0E6FB119800684069400600282FD553
:102F8000FFE7FFE7FFE71198006850E8050F20F022
:102F900040000B90FFE70B991198026842E805107A
:102FA0000028F0D1FFE7FFE71198C06B98B1FFE769
:102FB0001198C16B44F2E940C0F6000048631198D3
:102FC000C06BFDF71DFC28B1FFE71198C06B416B8A
:102FD0008847FFE703E01198FFF71CFFFFE703E0D6
:102FE0001198FFF717FFFFE706E01198FFF712FFB0
:102FF000119900204864FFE7FFE722E11198006B78
:10300000012840F0FE80FFE79DF84000C006002840
:1030100040F1F780FFE79DF83C00C006002840F132
:10302000F080FFE7FFE700200A9011980068006831
:103030000A901198006840680A900A98FFE7119872
:10304000006840694006002840F18180FFE7119840
:10305000C06B00684068ADF82600BDF82600002867
:1030600074D0FFE7BDF826001199898D88426DDA8A
:10307000FFE7BDF826001199C8851198C06B8069DB
:10308000202858D0FFE7FFE7FFE71198006850E8D5
:10309000030F20F480700890FFE7089911980268E8
:1030A00042E803100028F0D1FFE7FFE7FFE7FFE762
:1030B0001198006850E8050F20F001000790FFE725
:1030C00007991198026842E805100028F0D1FFE73F
:1030D000FFE7FFE7FFE71198006850E8050F20F0D1
:1030E00040000690FFE706991198026842E8051033
:1030F0000028F0D1FFE7FFE71199202081F8420076
:10310000119900200863FFE7FFE71198006850E875
:10311000030F20F010000590FFE705991198026851
:1031200042E803100028F0D1FFE7FFE71198C06BD9
:10313000FDF728FBFFE71199022048631198818D64
:10314000C28D891A89B2FFF759FEFFE779E011991C
:10315000888DC98D401AADF812001198C08D0028D5
:103160004ED0FFE7BDF81200002849D0FFE7FFE787
:10317000FFE71198006850E8030F20F49070039067
:10318000FFE703991198026842E803100028F0D184
:10319000FFE7FFE7FFE7FFE71198006850E8050F3A
:1031A00020F001000290FFE702991198026842E8BE
:1031B00005100028F0D1FFE7FFE71199202081F8E2
:1031C0004200119900200863FFE7FFE711980068AB
:1031D00050E8030F20F010000190FFE701991198CB
:1031E000026842E803100028F0D1FFE7FFE71199D9
:1031F000022048631198BDF81210FFF7FFFDFFE7AA
:103200001FE09DF84000000600280AD5FFE79DF862
:103210003C000006002804D5FFE7119801F0A4FC4B
:103220000FE09DF84000400600280AD5FFE79DF812
:103230003C004006002804D5FFE7119801F0CAFAC7
:10324000FFE712B080BD000080B582B0009000980A
:1032500020B9FFE701208DF8070040E00098806961
:1032600008B1FFE700E0FFE7009890F8410040B99F
:10327000FFE70099002081F84000009800F034F842
:10328000FFE70099242081F8410000980168C86890
:1032900020F40050C860009801F082FB009801689B
:1032A000086920F49040086100980168486920F09E
:1032B0002A00486100980168C86840F40050C8605E
:1032C000009900204864009A202182F84110009A59
:1032D00082F84210009948638DF80700FFE79DF8D7
:1032E000070002B080BD000080B596B015900020A8
:1032F00014901390129011901598006843F60001F5
:10330000C4F20101884240F09980FFE7FFE741F2F3
:103310001800C4F20200016841F4804101600068B5
:1033200000F4804010901098FFE7FFE741F218008A
:10333000C4F20200016841F008010160006800F079
:1033400008000F900F98FFE7402011900220129084
:103350000320149040F60040C4F201000A9011A925
:103360000B91FDF7FFFC0A980B9980221192002225
:1033700012921392FDF7F6FCFFE70421C4F201015B
:1033800008680E900E9840F0E0600E900E9840F0A5
:1033900004000E900E980860FFE740F22420C2F26D
:1033A000000009905821C4F202010160002141602F
:1033B00081608022C260016141618161C161FDF76C
:1033C000F1FB18B1FFE7FDF7D5F9FFE7FFE7159827
:1033D00040F22421C2F20001C16315984862FFE760
:1033E00040F26820C2F2000008904421C4F20201B9
:1033F000016010214160002181608022C260016172
:1034000041618161C161FDF7CDFB18B1FFE7FDF7B7
:10341000B1F9FFE7FFE7159840F26821C2F2000119
:10342000816315984862FFE725200790012100225B
:10343000FDF7DCFE0798FDF7CFFE94E015980068D5
:1034400044F60001C4F20001884240F08B80FFE79F
:10345000FFE741F21C00C4F20200016841F4802140
:103460000160006800F480200D900D98FFE7FFE7F1
:1034700041F21800C4F20200016841F00801016045
:10348000006800F008000C900C98FFE74FF4806093
:103490001190022012900320149040F60040C4F2D4
:1034A0000100039011A90491FDF75CFC03980499B5
:1034B0004FF4006211920022059212921392FDF7CE
:1034C00051FC059940F2AC20C2F200000690302277
:1034D000C4F202020260416081608022C260016128
:1034E00041618161C161FDF75DFB18B1FFE7FDF747
:1034F00041F9FFE7FFE7159840F2AC21C2F2000165
:10350000C16315984862FFE740F2F020C2F2000064
:1035100002901C21C4F202010160102141600021CF
:1035200081608022C260016141618161C161FDF7FA
:1035300039FB18B1FFE7FDF71DF9FFE7FFE7159825
:1035400040F2F021C2F20001816315984862FFE762
:103550002720019001210022FDF748FE0198FDF788
:103560003BFEFFE7FFE716B080BD000081B0009092
:1035700001B0704781B0009001B0704780B586B04F
:1035800004900391ADF80A20049890F84100202897
:103590005DD1FFE7039820B1FFE7BDF80A0020B92D
:1035A000FFE701208DF8170055E0039804990862A1
:1035B000BDF80A0004998884BDF80A000499C884FB
:1035C000049900204864049A212182F8411004994A
:1035D0008A6B44F2AD61C0F60001916204998A6B76
:1035E00044F22971C0F60001D16204998A6B44F259
:1035F0000951C0F6000111630499896B486303A85F
:10360000019004980268806B019909680432BDF842
:103610000A30FDF71FFB049801686FF04000086056
:10362000FFE7FFE70498006850E8050F40F08000CE
:103630000090FFE700990498026842E8051000280E
:10364000F0D1FFE7FFE700208DF8170003E002202C
:103650008DF81700FFE79DF8170006B080BD000049
:1036600081B0009001B0704781B0009001B0704708
:10367000FFE7FEE780B586B0FFE741F21400C4F231
:103680000200016841F001010160006800F00100E2
:1036900005900598FFE70C20009000220392114648
:1036A000FDF7A4FD0098FDF797FD039A0D2001900A
:1036B0001146FDF79BFD0198FDF78EFD039A0E2044
:1036C00002901146FDF792FD0298FDF785FD039AE1
:1036D0000F2004901146FDF789FD0498FDF77CFD4D
:1036E00006B080BD80B58AB0002009900890079090
:1036F0000690FFE741F21800C4F20200016841F0B1
:1037000020010160006800F0200005900598FFE7A7
:10371000FFE741F21800C4F20200016841F0040121
:103720000160006800F0040004900498FFE7FFE7E0
:1037300041F21800C4F20200016841F00801016082
:10374000006800F0080003900398FFE740F60000CF
:10375000C4F2010002901C21009100220192FDF7A9
:1037600091FC009A01990298069201220792089111
:103770000221099106A9FDF7F5FA0AB080BD000003
:1037800080B582B040F23430C2F20000019043F2C2
:103790000001C4F2010101604FF482714160002117
:1037A0008160C16002220261012242614FF4007215
:1037B00082613022C2610162416281620A21C1627A
:1037C000FEF728FA18B1FFE7FCF7D4FFFFE702B0D5
:1037D00080BD000080B598B000210191179116912D
:1037E0001591149113911291119110910F910E91C5
:1037F0000D910C910B910A910991089107910691F5
:1038000005910491039140F28C30C2F200000290C5
:1038100042F60042C4F2010202604FF43472426088
:1038200081604FF4FA62C260016141618161FEF71B
:1038300063FD18B1FFE7FCF79DFFFFE74FF48050F1
:10384000149040F28C30C2F2000014A9FEF76CFE16
:1038500018B1FFE7FCF78EFFFFE740F28C30C2F2B1
:103860000000FFF731F918B1FFE7FCF783FFFFE72E
:1038700000201290139040F28C30C2F2000012A986
:10388000FEF7CCFC18B1FFE7FCF774FFFFE7602000
:103890000B9000220C920D920E920F9210921192A8
:1038A00040F28C30C2F200000BA9FFF76BF818B1A0
:1038B000FFE7FCF75FFFFFE740F28C30C2F2000049
:1038C0000BA90422FFF75EF818B1FFE7FCF752FFDF
:1038D000FFE740F28C30C2F200000BA90822FFF78C
:1038E00051F818B1FFE7FCF745FFFFE740F28C30D5
:1038F000C2F200000BA90C22FFF744F818B1FFE751
:10390000FCF738FFFFE70020039004900590069035
:1039100007904FF4005108910A9040F28C30C2F2A7
:10392000000003A9FEF720FC18B1FFE7FCF722FF17
:10393000FFE740F28C30C2F20000FEF7C9FF18B07A
:1039400080BD000080B588B00021019107910691EB
:10395000059104910391029140F2D430C2F200002B
:103960004FF08042026040F2CF224260816040F21C
:10397000E732C26001618161FEF7BEFC18B1FFE76A
:10398000FCF7F8FEFFE74FF48050049040F2D4308B
:10399000C2F2000004A9FEF7C7FD18B1FFE7FCF76B
:1039A000E9FEFFE700200290039040F2D430C2F21B
:1039B000000002A9FEF732FC18B1FFE7FCF7DAFEBF
:1039C000FFE708B080BD000080B58EB000210091F7
:1039D0000D910C910B910A91099108910791069113
:1039E0000591049103910291019140F21C40C2F2B1
:1039F000000040F20042C4F2000202604FF4347250
:103A0000426081604FF47A72C26001618161FEF7A9
:103A100073FC18B1FFE7FCF7ADFEFFE74FF48050F1
:103A20000A9040F21C40C2F200000AA9FEF77CFD99
:103A300018B1FFE7FCF79EFEFFE740F21C40C2F220
:103A40000000FFF741F818B1FFE7FCF793FEFFE72E
:103A500000200890099040F21C40C2F2000008A922
:103A6000FEF7DCFB18B1FFE7FCF784FEFFE7602000
:103A70000190002002900390059040F21C40C2F299
:103A8000000001A90822FEF77DFF18B1FFE7FCF74F
:103A900071FEFFE740F21C40C2F20000FEF718FF83
:103AA0000EB080BD80B588B00021019107910691CC
:103AB000059104910391029140F26440C2F200002A
:103AC00040F60002C4F20002026040F2CF224260DF
:103AD000816040F2E732C26001618161FEF70CFC57
:103AE00018B1FFE7FCF746FEFFE74FF48050049063
:103AF00040F26440C2F2000004A9FEF715FD18B1BF
:103B0000FFE7FCF737FEFFE700200290039040F24A
:103B10006440C2F2000002A9FEF780FB18B1FFE783
:103B2000FCF728FEFFE708B080BD000080B582B03A
:103B300040F2AC40C2F20000019043F60001C4F232
:103B4000010101604FF4E131416000218160C160F9
:103B500001610C2242618161C161FFF775FB18B1FF
:103B6000FFE7FCF707FEFFE702B080BD80B582B03B
:103B700040F2F440C2F20000019044F60001C4F2A9
:103B8000000101604FF4E131416000218160C160BA
:103B900001610C2242618161C161FFF755FB18B1DF
:103BA000FFE7FCF7E7FDFFE702B080BDFFE7FEE7B8
:103BB000FFE7FEE788B0079006910592079800F0AE
:103BC000070004900498C0F10700052803D3FFE71D
:103BD0000420019004E00498C0F107000190FFE781
:103BE0000198039004980430062803D8FFE70020CA
:103BF000009003E0049803380090FFE700980290DB
:103C000006980399012202FA01F101390840029B4A
:103C1000984005999A40013A1140084308B070470E
:103C20007047000082B00190019840F20001C2F29A
:103C300000010968C90844F6D352C1F26202A1FB2F
:103C40000221890948430090FFE700BFFFE7009881
:103C5000411E00910028F8D1FFE702B07047000034
:103C600080B586B00490039102920498039B029958
:103C70006A4611600221012200F028F848B1FFE7EE
:103C80000499486D40F02000486503208DF8170026
:103C900017E00498039B02996A4611608021002274
:103CA00000F014F848B1FFE70499486D40F0200097
:103CB000486503208DF8170003E000208DF81700F9
:103CC000FFE79DF8170006B080BD000080B58AB000
:103CD000DDF830C0089007918DF81B2005930598FA
:103CE0000190FDF7E7F9024601980C99891A0844FA
:103CF0000390FDF7DFF90290039840F20001C2F251
:103D000000010968C1F3CB3148430490FFE70898EC
:103D10000068806807990840401AB0FA80F04009AE
:103D20009DF81B1088425ED0FFE7059801300028FF
:103D300058D0FFE7FDF7BEF90299401A039988426F
:103D400004D2FFE70398002842D1FFE708980168F2
:103D5000486820F0E000486008984068B0F5827F2D
:103D600013D1FFE708988068B0F5004F06D0FFE751
:103D700008988068B0F5806F07D1FFE70898016860
:103D8000086820F040000860FFE70898806AB0F5F6
:103D9000005F0FD1FFE7FFE708980168086820F48B
:103DA0000050086008980168086840F400500860F6
:103DB000FFE7FFE70899012081F85100FFE7089924
:103DC000002081F85000FFE703208DF827000EE067
:103DD000049818B9FFE700200390FFE70498013822
:103DE0000490FFE793E700208DF82700FFE79DF898
:103DF00027000AB080BD00007047000080B582B087
:103E0000009000980138B0F1807F03D3FFE70120D4
:103E1000019019E0009801384EF21401CEF2000131
:103E200008604FF0FF300F2102F0BCFE4EF2180187
:103E3000CEF20001002008604EF21002CEF2000225
:103E4000072111600190FFE7019802B080BD0000DA
:103E500080B5FDF735F980BD80B590B006A800901B
:103E60002821FCF70EFA009800230593049303938E
:103E700002930193012206924FF480310791089337
:103E80000A9202220D920E914FF4E0110F91FDF76C
:103E900083FB18B1FFE7FCF76DFCFFE70F200190F3
:103EA00002210291002003904FF480620492059059
:103EB00001A8FDF7BDF918B1FFE7FCF75BFCFFE7D0
:103EC00010B080BD7047000080B540F2D430C2F21F
:103ED0000000FEF7EFFB80BD83B0029001910298D5
:103EE00000680090029842F60041C4F20101884245
:103EF00015D0FFE70298B0F1804F10D0FFE702988D
:103F000040F20041C4F20001884208D0FFE7029865
:103F100040F60001C4F2000188420AD1FFE7009890
:103F200020F07000009001984168009808430090CC
:103F3000FFE7029842F60041C4F20101884215D021
:103F4000FFE70298B0F1804F10D0FFE7029840F2EF
:103F50000041C4F20001884208D0FFE7029840F611
:103F60000001C4F2000188420AD1FFE7009820F462
:103F7000407000900198C168009808430090FFE7E6
:103F8000009820F08000019949690843009000984A
:103F900002990860019880680299C86201980068D7
:103FA00002998862029842F60041C4F201018842F7
:103FB00005D1FFE70198006902990863FFE70299BC
:103FC0000120486102980069C00730B1FFE70299FB
:103FD000086920F001000861FFE703B070470000A6
:103FE00084B0039002910192029800F01F01012019
:103FF00088400090009A0399086A904308620198EB
:10400000029901F01F0100FA01F20399086A1043B6
:10401000086204B07047000085B0049003910292DA
:104020000193049880680090009820F47F400090ED
:1040300003980299019A41EA02210143009808433A
:10404000009000980499886005B0704783B0029092
:104050000191029880680090009820F07000009014
:1040600001980099084340F00700009000980299D9
:10407000886003B07047000085B0049003910498F5
:10408000006A01900499086A20F00100086204980F
:1040900040680090049880690290029820F07000B7
:1040A0000290029820F003000290039801680298A1
:1040B00008430290019820F0020001900398816863
:1040C000019808430190049842F60041C4F20101AE
:1040D00088420ED1FFE7019820F008000190039874
:1040E000C168019808430190019820F004000190F4
:1040F000FFE7049842F60041C4F20101884213D15F
:10410000FFE7009820F480700090009820F4007081
:1041100000900398416900980843009003988169D2
:10412000009808430090FFE70098049948600298BF
:104130000499886103984068049948630198049938
:10414000086205B07047000085B0049003910498A0
:10415000006A01900499086A20F01000086204982F
:1041600040680090049880690290029820F4E04032
:104170000290029820F4407002900398016802981F
:1041800040EA01200290019820F02000019003985D
:104190008168019840EA01100190049842F60041BC
:1041A000C4F2010188420FD1FFE7019820F080009E
:1041B00001900398C168019840EA011001900198AC
:1041C00020F040000190FFE7049842F60041C4F25D
:1041D0000101884215D1FFE7009820F4806000902B
:1041E000009820F40060009003984169009840EA2C
:1041F0008100009003988169009840EA8100009056
:10420000FFE7009804994860029804998861039830
:1042100040680499886301980499086205B0704762
:1042200085B0049003910498006A01900499086A8B
:1042300020F4807008620498406800900498C06977
:104240000290029820F070000290029820F0030083
:10425000029003980168029808430290019820F4A4
:104260000070019003988168019840EA0120019054
:10427000049842F60041C4F2010188420FD1FFE7E1
:10428000019820F4006001900398C168019840EA09
:1042900001200190019820F480600190FFE70498CC
:1042A00042F60041C4F20101884215D1FFE70098AF
:1042B00020F480500090009820F400500090039863
:1042C0004169009840EA01100090039881690098C4
:1042D00040EA01100090FFE70098049948600298B6
:1042E0000499C861039840680499C86301980499C7
:1042F000086205B07047000085B0049003910498EF
:10430000006A01900499086A20F4805008620498B9
:10431000406800900498C0690290029820F4E04040
:104320000290029820F4407002900398016802986D
:1043300040EA01200290019820F400500190039877
:104340008168019840EA01300190049842F60041EA
:10435000C4F2010188420BD1FFE7009820F48040AD
:10436000009003984169009840EA81100090FFE7AF
:1043700000980499486002980499C86103984068BD
:104380000499086401980499086205B07047000018
:1043900085B00490039102920498006A00900499F9
:1043A000086A20F001000862049880690190019871
:1043B00020F0F00001900299019840EA011001906C
:1043C000009820F00A00009003990098084300909C
:1043D00001980499886100980499086205B07047B3
:1043E00085B00490039102920498006A00900499A9
:1043F000086A20F010000862049880690190019812
:1044000020F4704001900299019840EA0130019037
:10441000009820F0A00000900399009840EA011055
:10442000009001980499886100980499086205B089
:104430007047000080B582B000208DF803008DF831
:104440000200EFF3108072B6019040F24050C2F2C9
:1044500000000078C00780B1FFE740F24150C2F28F
:1044600000000078C00740B1FFE740F24451C2F2BB
:104470000001086801300860FFE740F24050C2F2D6
:1044800000000078C00750B1FFE740F24051C2F28F
:1044900000010020087001208DF80300FFE740F2C2
:1044A0004150C2F200000078C00750B1FFE740F26F
:1044B0004151C2F200010020087001208DF8020075
:1044C000FFE762B69DF80300C00718B1FFE700F0F0
:1044D000D5FDFFE79DF80200C00718B1FFE700F027
:1044E0009DFDFFE702B080BD80B582B001900198CC
:1044F000406A009000990020C8850099C8840098FF
:10450000FEF788FC02B080BD80B584B00390002027
:1045100002900398406A0190019800684069C0B217
:10452000C0090290019890F8410021280AD1FFE7C4
:10453000029838B1FFE701990020C884019800F083
:104540005DF9FFE7019800684069C0F380100290B0
:10455000019890F8420022280AD1FFE7029838B16A
:10456000FFE701990020C885019800F0E9F8FFE70E
:104570000199486C40F0100048640198FEF74AFC2D
:1045800004B080BD80B586B005900598406A04905F
:10459000059800680068800600285AD4FFE704994F
:1045A0000020C885FFE7FFE70498006850E8030F84
:1045B00020F480700390FFE703990498026842E8B2
:1045C00003100028F0D1FFE7FFE7FFE7FFE70498BB
:1045D000006850E8050F20F001000290FFE7029903
:1045E0000498026842E805100028F0D1FFE7FFE7D1
:1045F000FFE7FFE70498006850E8050F20F040004F
:104600000190FFE701990498026842E8051000282C
:10461000F0D1FFE7FFE70499202081F842000498D9
:10462000006B012814D1FFE7FFE7FFE7049800685B
:1046300050E8030F20F010000090FFE70099049865
:10464000026842E803100028F0D1FFE7FFE7FFE728
:10465000FFE70499002048630498006B012805D106
:10466000FFE70498818DFEF7C9FB03E00498FEF78D
:104670007DFFFFE706B080BD80B582B00190019854
:10468000406A00900099012048630098006B01285F
:1046900006D1FFE70098818D4908FEF7AFFB03E0E4
:1046A0000098FEF767FFFFE702B080BD80B584B0D9
:1046B00003900398406A029003980068006880069F
:1046C00000282AD4FFE702990020C884FFE7FFE70B
:1046D0000298006850E8050F20F080000190FFE785
:1046E00001990298026842E805100028F0D1FFE71E
:1046F000FFE7FFE7FFE70298006850E8030F40F08C
:1047000040000090FFE700990298026842E8031019
:104710000028F0D1FFE7FFE703E00298FEF7A0FFD3
:10472000FFE704B080BD000080B582B00190019821
:10473000406A00900098FEF797FF02B080BD00002D
:1047400084B00390FFE7FFE70398006850E8030F89
:1047500020F490700290FFE702990398026842E803
:1047600003100028F0D1FFE7FFE7FFE7FFE703981A
:10477000006850E8050F20F001000190FFE7019963
:104780000398026842E805100028F0D1FFE7FFE730
:104790000398006B012814D1FFE7FFE7FFE70398B8
:1047A000006850E8030F20F010000090FFE7009928
:1047B0000398026842E803100028F0D1FFE7FFE702
:1047C000FFE70399202081F8420003990020086345
:1047D00004B0704780B582B0019001980168C86844
:1047E00020F04000C8600199202081F84100019824
:1047F000FEF736FF002002B080BD000082B00190BD
:10480000FFE7FFE70198006850E8030F20F0C000C1
:104810000090FFE700990198026842E80310002821
:10482000F0D1FFE7FFE70199202081F8410002B0B5
:104830007047000080B586B00490049890F842005C
:10484000222840F0A480FFE704988068B0F5805FDC
:1048500015D1FFE70498006988B9FFE700200390AD
:104860000498806A02900498006840686FF35F20A3
:10487000029908800499886A0230886225E00498C9
:10488000806A03900020029004988068B0F5805FF1
:1048900008D0FFE70498806850B9FFE704980069E2
:1048A00030B9FFE70498006840680399087007E092
:1048B00004980068406800F07F0003990870FFE7E3
:1048C0000499886A01308862FFE70499C88D01382D
:1048D000C8850004002856D1FFE704980168C8681D
:1048E00020F02000C86004980168C86820F4807037
:1048F000C86004980168486920F001004861049983
:10490000202081F842000499002048630498006B3D
:10491000012830D1FFE7049900200863FFE7FFE793
:104920000498006850E8030F20F010000190FFE7A2
:1049300001990498026842E803100028F0D1FFE7CB
:10494000FFE7049800680068C00600280ED5FFE75E
:10495000FFE7002000900498006800680090049829
:104960000068406800900098FFE7FFE70498818D99
:10497000FEF744FA03E00498FEF7F8FDFFE7002095
:104980008DF8170007E000208DF8170003E00220E3
:104990008DF81700FFE79DF8170006B080BD0000F6
:1049A00080B584B0039003980068006920F44050FB
:1049B000039A1168D26810430861039988680A69EC
:1049C000496910430843029003980068C06841F2A7
:1049D0000C6188430299084303990968C8600398E9
:1049E0000068406920F44070039A1168926910438E
:1049F00048610398006843F60001C4F2010188424F
:104A000004D1FFE7FCF758FD019003E0FCF742FDFD
:104A10000190FFE7019819214843039A11685268F1
:104A20009200B0FBF2FC48F21F52C5F2EB12ACFB55
:104A300002304309642003FB10CC322000EB0C1041
:104A4000A0FB0202F02000EA521000EB0310C2F3B8
:104A500043121044886004B080BD000080B588B067
:104A600007900691ADF81620069807998862BDF860
:104A7000160007998885079900204864079A222123
:104A800082F842100799CA6B44F28551C0F60001C2
:104A900091620799CA6B44F27961C0F60001D16254
:104AA0000799CA6B44F20951C0F6000111630799D6
:104AB000C96B486306A8049007980168C06B04316D
:104AC000049A1268BDF81630FCF7C4F8FFE700201E
:104AD0000390079800680068039007980068406892
:104AE00003900398FFE707980069A0B1FFE7FFE78D
:104AF000FFE70798006850E8030F40F480700290C9
:104B0000FFE702990798026842E803100028F0D1F5
:104B1000FFE7FFE7FFE7FFE7FFE70798006850E8D8
:104B2000050F40F001000190FFE701990798026826
:104B300042E805100028F0D1FFE7FFE7FFE7FFE7B5
:104B40000798006850E8050F40F040000090FFE72C
:104B500000990798026842E805100028F0D1FFE7A5
:104B6000FFE7002008B080BD83B00190019890F865
:104B7000410021283AD1FFE701988068B0F5805FB5
:104B800013D1FFE70198006978B9FFE70198006A3F
:104B90000090009800886FF35F20019909684860D1
:104BA0000199086A0230086208E0019A106A411C03
:104BB00011620078019909684860FFE70199C88C83
:104BC0000138C884000468B9FFE701980168C86823
:104BD00020F08000C86001980168C86840F040007B
:104BE000C860FFE700208DF80B0003E002208DF87D
:104BF0000B00FFE79DF80B0003B0704780B540F253
:104C0000AC40C2F20000FEF709F980BD80B540F269
:104C1000F440C2F20000FEF701F980BDFFE7FEE7B5
:104C200080B501F0FFFF02F015F802F01BF802F06A
:104C300021F802F02BF880BD80B582B00190019878
:104C4000FCF76EF802B080BD80B58CB00B900B986D
:104C500008B9FFE77BE04EF21000CEF200000068DA
:104C6000C00768B9FFE70B9800F2E73044F6D3516C
:104C7000C1F26201A0FB01108009FCF751F866E067
:104C800000F052F90A900A984DF68361C4F21B3184
:104C9000A0FB0110800C0990099868B9FFE70B98F8
:104CA00000F2E73044F6D351C1F26201A0FB0110DB
:104CB0008009FCF735F84AE00B980999A0FB01013F
:104CC000079106900020059004904EF21400CEF259
:104CD00000000068013003904EF21800CEF2000090
:104CE00000680290FFE7049A0598069B0799D21A7C
:104CF00088412CD2FFE74EF21800CEF20000006887
:104D0000019001980299884201D1FFE7EBE70298F0
:104D1000019988420BD3FFE702980199421A04993E
:104D20000598891840F10000049105900CE0029864
:104D30000399019A891A421804990598891840F133
:104D4000000004910590FFE701980290CBE70CB0BA
:104D500080BD000080B586B0059004910392029357
:104D60000298039B049A0599EC46CCF8000040F2A7
:104D70007C10C2F2000001F02BFE06B080BD0000E6
:104D800080B586B0DDF820C00591049203930399A5
:104D9000DDF820E0049B059AEC46CCF804E0CCF862
:104DA000001040F27C11C2F2000101F0C3FA06B01B
:104DB00080BD000080B586B0002004900390029072
:104DC0000190009040F2AC41C2F20001009140F22B
:104DD000C801C2F2000101914021ADF8081044F66B
:104DE0007161C0F6000103910490684601F09EFCD9
:104DF00020B9FFE700208DF817000EE040F2AC402C
:104E0000C2F2000040F2C801C2F20001402201F0EB
:104E100055FC01208DF81700FFE79DF8170006B03C
:104E200080BD000080B582B001900021084600904E
:104E3000C1B9FFE7019842F20041CCF6741101F0CC
:104E4000D3FF01460020009061B9FFE7019842F2CC
:104E50000041C4F6741101F0CEFF002818BF0120F4
:104E60000090FFE7009800F0010002B080BD000054
:104E700080B586B005900491ADF80E200293059898
:104E800040F2AC41C2F20001884207D1FFE704982A
:104E900020B1FFE7BDF80E0008B9FFE716E004995E
:104EA000BDF80E2040F2D410C2F20000019000F0D4
:104EB00093F9019801F078FD40B1FFE7FCF7FAF8AB
:104EC00040F20811C2F200010860FFE706B080BDA1
:104ED00083B0019000208DF80300FFE79DF80300E8
:104EE000032819DCFFE79DF8030000EB800140F286
:104EF0007800C2F2000050F821000199884204D1E4
:104F0000FFE79DF8030002900AE0FFE79DF8030029
:104F100001308DF80300E1E74FF0FF300290FFE72A
:104F2000029803B07047000080B582B0FCF7ACFA7D
:104F300000904EF21000CEF20000006840070028FA
:104F400003D5FFE70098019003E00098C0080190A6
:104F5000FFE7019802B080BD82B000208DF8030009
:104F6000FFE79DF80300032817DCFFE79DF8030027
:104F700000EB800140F27800C2F2000050F82100FE
:104F800020B9FFE79DF8030001900AE0FFE79DF8D4
:104F9000030001308DF80300E3E74FF0FF3001908C
:104FA000FFE7019802B0704781B00090009860B1AF
:104FB000FFE70098C06B40B1FFE70098C06B016845
:104FC000086820F004000860FFE701B070470000A7
:104FD00080B584B00290019100920298019901F08D
:104FE000FCFE18B9FFE7019803900BE002980099C6
:104FF00001F0FAFE18B9FFE70098039002E002986A
:105000000390FFE7039804B080BD000080B540F234
:10501000D411C2F2000101F0CFFC80BD7047000046
:1050200080B582B0009040F2D410C2F2000001F0CE
:10503000BBFC20B9FFE700208DF807000DE00098C9
:1050400040F20811C2F200010968411A00209729B4
:1050500038BF01208DF80700FFE79DF8070002B078
:1050600080BD000080B582B00190019940F2F0103F
:10507000C2F2000000F082F902B080BD80B5FBF7FB
:105080002DFA80BD80B58EB00C900B9102A80190D6
:105090002421FBF7F6F8019940F21810C2F2000043
:1050A00000F0CEFA20B9FFE700208DF8370015E0B8
:1050B00008980C99086009980C9948600A980C990E
:1050C000886005980B99086006980B9948600798C6
:1050D0000B99886001208DF83700FFE79DF83700B5
:1050E0000EB080BD80B588B00690059106980190FD
:1050F000059820B9FFE700208DF81F0041E00598D2
:1051000000785A2805D1FFE705984078A52804D0F3
:10511000FFE700208DF81F0033E005980A2100F01A
:1051200035F88DF813009DF813000599897A8842A7
:1051300004D0FFE700208DF81F0022E0002003903C
:1051400002900598D0F8020003900598D0F8060068
:105150000290039801F0FAFC28B1FFE7029801F0F1
:10516000F5FC20B9FFE700208DF81F0009E0019948
:105170000398486002988860012008738DF81F002A
:10518000FFE79DF81F0008B080BD000083B00290CB
:10519000ADF806100020ADF80400ADF80200FFE7FE
:1051A000BDF80200BDF80610884210DAFFE7029849
:1051B000BDF80210415CBDF804000844ADF80400DD
:1051C000FFE7BDF802000130ADF80200E8E79DF806
:1051D000040003B07047000080B586B005900491CC
:1051E000ADF80E2005980190049820B1FFE7BDF8B6
:1051F0000E0008B9FFE764E00020ADF80C00FFE7FF
:10520000BDF80C00BDF80E1088425ADAFFE701988D
:105210000499BDF80C20895C8DF80B10007E78B9DC
:10522000FFE79DF80B005A2809D1FFE7019B9DF885
:105230000B001A7E991801321A764873FFE73AE09C
:105240000198007E012820D1FFE79DF80B00A528DA
:1052500009D1FFE7019B9DF80B001A7E99180132D6
:105260001A76487310E09DF80B005A2807D1FFE723
:1052700001999DF80B0048730120087603E001991D
:1052800000200876FFE7FFE715E001989DF80B1076
:10529000037EC218013303765173007E0B2809DBAD
:1052A000FFE7019800F10D01FFF71CFF01990020B5
:1052B0000876FFE7FFE7BDF80C000130ADF80C0001
:1052C0009EE706B080BD000085B003900399009171
:1052D000049100200860486088600873487301F1F9
:1052E0000E00183101910290FFE70299019A002007
:1052F00001F8010B084691420290F6D1FFE70099B0
:1053000000200876049805B07047000081B0009036
:10531000009840F20C11C2F20001086001B0704721
:1053200080B59EB01D908DF8731040F20C10C2F243
:105330000000006808B9FFE71EE04FF0FF40029050
:105340001D999DF8730082000DF10F000190FAF78E
:1053500053FF01999DF87320029841F8220040F212
:105360000C10C2F2000000689DF87330042202EBBA
:105370008302FEF703F9FFE71EB080BD80B588B059
:105380000790069107980190006818B1FFE706980A
:1053900008B9FFE730E000208DF81700FFE79DF81F
:1053A0001700032828DCFFE706989DF8171050F82F
:1053B000210000F023F80490049800F0D5F801468D
:1053C000019803910068039900F080F80146019864
:1053D000029100689DF8172047F21C41C0F60001B9
:1053E00051F82210029A00F011FFFFE79DF8170014
:1053F00001308DF81700D2E708B080BD80B582B0CB
:10540000009000980021C4F2C81101F0EDFC28B909
:10541000FFE70020C4F2C81001900FE000980021BF
:10542000CCF2C81101F0D9FC28B9FFE70020CCF27A
:10543000C810019002E000980190FFE7019802B0C7
:1054400080BD000080B588B00690069818B9FFE7C7
:105450000020079037E0069842F60041C4F20101AF
:10546000884218D1FFE7FCF727F8059041F20400C5
:10547000C4F20200006800F460500490049818B967
:10548000FFE70598019003E0059840000190FFE7D1
:105490000198079017E0FBF7FDFF039041F204002D
:1054A000C4F20200006800F4E0600290029818B9AB
:1054B000FFE70398009003E0039840000090FFE7A7
:1054C00000980790FFE7079808B080BD80B58AB0C4
:1054D00008900791089818B9FFE70020099040E06C
:1054E00008980068FFF7AEFF06900898406805909E
:1054F00008980068C06A0490069818B9FFE7002071
:1055000009902EE0069805990131B0FBF1F0039067
:10551000039818B9FFE70020099022E0079800904F
:10552000039801F0A9FD0146009801F021FE42F226
:105530000041C4F6741101F071FC029002984FF022
:105540007C5101F0D3FB01F05FFD019001980499BB
:10555000884203D9FFE704980190FFE7019809907A
:10556000FFE709980AB080BD80B584B00390039826
:105570000021C4F2342101F0B9FB0021C4F2B421AE
:1055800001F04CFC029002980021C4F27A41019192
:1055900001F0EEFD019901F0A9FB04B080BD00000F
:1055A00080B588B0069006980090006820B9FFE7A3
:1055B00000208DF81F0028E000208DF81700FFE77D
:1055C0009DF81700032813DCFFE7009800689DF89A
:1055D000172047F21C41C0F6000151F8221000F0DC
:1055E0004BFEFFE79DF8170001308DF81700E7E745
:1055F00000980021049103910291019101A9FFF704
:10560000BDFE01208DF81F00FFE79DF81F0008B0C8
:1056100080BD000084B00290019102980090039038
:1056200001990160006838B9FFE7009940F28C30B9
:10563000C2F200000860FFE7039804B07047000062
:10564000B0B59EB01C901B911C9813901B9820B96C
:10565000FFE700208DF877002BE113980021ADF8CB
:1056600068101991122119AA062300F0D3F920B964
:10567000FFE700208DF877001BE1139800211891B7
:10568000179117AA082300F093F920B9FFE700202B
:105690008DF877000DE19DF864009DF8651000F02D
:1056A00009FB1B9908809DF866009DF8671000F0C3
:1056B00001FB1B9948809DF868009DF8691000F077
:1056C000F9FA1B9988809DF85C000F2819D1FFE733
:1056D0009DF85E009DF85F1000F0ECFA1B99C88001
:1056E0009DF860009DF8611000F0E4FA1B990881B4
:1056F0009DF862009DF8631000F0DCFA1B99488168
:10570000FFE71B980A90B0F9000001F09DFC43F2FE
:105710003331C3F6EB210C9101F02AFD0A99C860E0
:105720001B980B90B0F9020001F08EFC0C9901F06F
:105730001FFD0B9908611B980D90B0F9040001F052
:1057400083FC0C9901F014FD0D9948611B980E9093
:10575000B0F9060001F078FC4AF25801C3F68B213B
:10576000109101F005FD0E9988611B980F90B0F91A
:10577000080001F069FC109901F0FAFC0F99C8616A
:105780001B981190B0F90A0001F05EFC109901F02D
:10579000EFFC119A0146139811621B9B1293196832
:1057A0005A68D3F808C0D3F80CE01C695D694561FC
:1057B0000461C0F80CE0C0F808C04260016099695B
:1057C000DA691B6A0362C261816190F84C00C0070C
:1057D000E8B9FFE713991B9B099318685A68D3F837
:1057E00008C0D3F80CE01C695D698D634C63C1F897
:1057F00030E0C1F82CC08A6248629869DA691B6A95
:105800004B640A64C863012081F84C004DE0139892
:10581000806C169016994FF07E5001F075FD159032
:1058200000201490FFE7149802283DDCFFE713994D
:10583000169801901B98149A00EB8200C0680090A3
:1058400015982431049101EB82010391C96801F09C
:105850008FFC009902460198029201F089FC02999E
:1058600001F044FA039A0499D060169806901B98A8
:10587000149A00EB820080690590159801EB820173
:105880000891896901F074FC05990246069807920F
:1058900001F06EFC079901F029FA08998861FFE789
:1058A000149801301490BEE7FFE701208DF87700CF
:1058B000FFE79DF877001EB0B0BD000080B584B052
:1058C00003908DF80B108DF80A20039A106DD16D9E
:1058D000B2F860209DF80B309DF80AC0EE46CEF875
:1058E00000C000F0A3FA04B080BD000080B584B011
:1058F00003908DF80B108DF80A20039A106D516DEE
:10590000B2F858209DF80B309DF80AC0EE46CEF84C
:1059100000C000F08BFA04B080BD000080B586B0F6
:105920000490039104980190039820B9FFE70020A8
:105930008DF8170038E001980021ADF80A102221F7
:105940000DF10A02022300F065F820B9FFE70020FC
:105950008DF8170028E09DF80A009DF80B10C00094
:1059600040EA5110ADF80800BDF90800B0F5806FAD
:1059700007DBFFE7BDF80800A0F50060ADF8080000
:10598000FFE7BDF9080001F05FFB4FF0785101F02F
:10599000EFFB0021C4F2B81101F0A8F903990860E7
:1059A00001208DF81700FFE79DF8170006B080BDB5
:1059B00010B586B005908DF813100392ADF80A303B
:1059C000059A106DD16DB2F860209DF81330DDF8A6
:1059D0000CC0BDF80A40EE46CEF80440CEF800C038
:1059E00000F09EF906B010BD80B584B003908DF82C
:1059F0000B100192039A106DD16DB2F860209DF8E2
:105A00000B30DDF804C0EE46CEF800C000F0ECFA32
:105A100004B080BD10B586B005908DF813100392C8
:105A2000ADF80A30059A106D516DB2F858209DF806
:105A30001330DDF80CC0BDF80A40EE46CEF8044045
:105A4000CEF800C000F038FA06B010BD80B584B0C2
:105A500003908DF80B100192039A106D516DB2F8FE
:105A600058209DF80B30DDF804C0EE46CEF800C09B
:105A700000F022FB04B080BD80B59CB01A901A984B
:105A80000890006D40B1FFE70898406D20B1FFE736
:105A90000898C06D20B9FFE700208DF86F0005E180
:105AA0000899486DB1F8581000F098FD0899C86D34
:105AB000B1F8601000F092FD0898002105918DF872
:105AC00067100DF167020692FFF7C0FF962007905E
:105AD000FFF7BAF808980599069AFFF7B7FF0798F5
